{
  "contractName": "BreadCoin",
  "abi": [
    {
      "inputs": [],
      "payable": false,
      "stateMutability": "nonpayable",
      "type": "constructor"
    },
    {
      "anonymous": false,
      "inputs": [
        {
          "indexed": false,
          "name": "candidat",
          "type": "address"
        }
      ],
      "name": "NewCandidatVotingToAdd",
      "type": "event"
    },
    {
      "anonymous": false,
      "inputs": [
        {
          "indexed": false,
          "name": "member",
          "type": "address"
        }
      ],
      "name": "MemberAdded",
      "type": "event"
    },
    {
      "anonymous": false,
      "inputs": [
        {
          "indexed": false,
          "name": "candidat",
          "type": "address"
        }
      ],
      "name": "Rejectedcandidat",
      "type": "event"
    },
    {
      "anonymous": false,
      "inputs": [
        {
          "indexed": false,
          "name": "from",
          "type": "address"
        },
        {
          "indexed": false,
          "name": "to",
          "type": "address"
        },
        {
          "indexed": false,
          "name": "value",
          "type": "uint256"
        }
      ],
      "name": "NewPayment",
      "type": "event"
    },
    {
      "anonymous": false,
      "inputs": [
        {
          "indexed": false,
          "name": "from",
          "type": "address"
        },
        {
          "indexed": false,
          "name": "to",
          "type": "address"
        },
        {
          "indexed": false,
          "name": "value",
          "type": "uint256"
        }
      ],
      "name": "PaymentAccepted",
      "type": "event"
    },
    {
      "anonymous": false,
      "inputs": [
        {
          "indexed": false,
          "name": "from",
          "type": "address"
        },
        {
          "indexed": false,
          "name": "to",
          "type": "address"
        },
        {
          "indexed": false,
          "name": "value",
          "type": "uint256"
        }
      ],
      "name": "PaymentRejected",
      "type": "event"
    },
    {
      "anonymous": false,
      "inputs": [
        {
          "indexed": false,
          "name": "member",
          "type": "address"
        }
      ],
      "name": "MemberRemoved",
      "type": "event"
    },
    {
      "anonymous": false,
      "inputs": [
        {
          "indexed": false,
          "name": "member",
          "type": "address"
        }
      ],
      "name": "NewCandidatVotingToRemove",
      "type": "event"
    },
    {
      "anonymous": false,
      "inputs": [
        {
          "indexed": false,
          "name": "candidat",
          "type": "address"
        }
      ],
      "name": "MemberNotRemoved",
      "type": "event"
    },
    {
      "anonymous": false,
      "inputs": [
        {
          "indexed": false,
          "name": "toMember",
          "type": "address"
        },
        {
          "indexed": false,
          "name": "value",
          "type": "uint256"
        }
      ],
      "name": "Minted",
      "type": "event"
    },
    {
      "anonymous": false,
      "inputs": [
        {
          "indexed": false,
          "name": "toMember",
          "type": "address"
        },
        {
          "indexed": false,
          "name": "value",
          "type": "uint256"
        }
      ],
      "name": "NotMinted",
      "type": "event"
    },
    {
      "anonymous": false,
      "inputs": [
        {
          "indexed": false,
          "name": "toMember",
          "type": "address"
        },
        {
          "indexed": false,
          "name": "value",
          "type": "uint256"
        }
      ],
      "name": "NotUnMinted",
      "type": "event"
    },
    {
      "anonymous": false,
      "inputs": [
        {
          "indexed": false,
          "name": "toMember",
          "type": "address"
        },
        {
          "indexed": false,
          "name": "value",
          "type": "uint256"
        }
      ],
      "name": "NewMintVoting",
      "type": "event"
    },
    {
      "anonymous": false,
      "inputs": [
        {
          "indexed": false,
          "name": "toMember",
          "type": "address"
        },
        {
          "indexed": false,
          "name": "value",
          "type": "uint256"
        }
      ],
      "name": "UnMinted",
      "type": "event"
    },
    {
      "anonymous": false,
      "inputs": [
        {
          "indexed": false,
          "name": "toMember",
          "type": "address"
        },
        {
          "indexed": false,
          "name": "value",
          "type": "uint256"
        }
      ],
      "name": "NewUnMintVoting",
      "type": "event"
    },
    {
      "constant": false,
      "inputs": [
        {
          "name": "toMember",
          "type": "address"
        },
        {
          "name": "value",
          "type": "uint256"
        }
      ],
      "name": "unMint",
      "outputs": [
        {
          "name": "",
          "type": "bool"
        }
      ],
      "payable": false,
      "stateMutability": "nonpayable",
      "type": "function"
    },
    {
      "constant": false,
      "inputs": [
        {
          "name": "toMember",
          "type": "address"
        },
        {
          "name": "value",
          "type": "uint256"
        }
      ],
      "name": "mint",
      "outputs": [
        {
          "name": "",
          "type": "bool"
        }
      ],
      "payable": false,
      "stateMutability": "nonpayable",
      "type": "function"
    },
    {
      "constant": false,
      "inputs": [
        {
          "name": "toMember",
          "type": "address"
        }
      ],
      "name": "acceptMint",
      "outputs": [
        {
          "name": "",
          "type": "bool"
        }
      ],
      "payable": false,
      "stateMutability": "nonpayable",
      "type": "function"
    },
    {
      "constant": false,
      "inputs": [
        {
          "name": "toMember",
          "type": "address"
        }
      ],
      "name": "acceptUnMint",
      "outputs": [
        {
          "name": "",
          "type": "bool"
        }
      ],
      "payable": false,
      "stateMutability": "nonpayable",
      "type": "function"
    },
    {
      "constant": true,
      "inputs": [],
      "name": "getContractStatus",
      "outputs": [
        {
          "name": "",
          "type": "uint8"
        }
      ],
      "payable": false,
      "stateMutability": "view",
      "type": "function"
    },
    {
      "constant": false,
      "inputs": [
        {
          "name": "member",
          "type": "address"
        },
        {
          "name": "phone",
          "type": "uint256"
        }
      ],
      "name": "addMember",
      "outputs": [
        {
          "name": "",
          "type": "bool"
        }
      ],
      "payable": false,
      "stateMutability": "nonpayable",
      "type": "function"
    },
    {
      "constant": false,
      "inputs": [
        {
          "name": "candidat",
          "type": "address"
        }
      ],
      "name": "removeMember",
      "outputs": [
        {
          "name": "",
          "type": "bool"
        }
      ],
      "payable": false,
      "stateMutability": "nonpayable",
      "type": "function"
    },
    {
      "constant": true,
      "inputs": [],
      "name": "getCandidatsToAdd",
      "outputs": [
        {
          "name": "",
          "type": "address[]"
        }
      ],
      "payable": false,
      "stateMutability": "view",
      "type": "function"
    },
    {
      "constant": true,
      "inputs": [],
      "name": "getCandidatsToRemove",
      "outputs": [
        {
          "name": "",
          "type": "address[]"
        }
      ],
      "payable": false,
      "stateMutability": "view",
      "type": "function"
    },
    {
      "constant": false,
      "inputs": [
        {
          "name": "candidat",
          "type": "address"
        }
      ],
      "name": "acceptcandidat",
      "outputs": [
        {
          "name": "",
          "type": "bool"
        }
      ],
      "payable": false,
      "stateMutability": "nonpayable",
      "type": "function"
    },
    {
      "constant": false,
      "inputs": [
        {
          "name": "candidat",
          "type": "address"
        }
      ],
      "name": "acceptcandidatToRemove",
      "outputs": [
        {
          "name": "",
          "type": "bool"
        }
      ],
      "payable": false,
      "stateMutability": "nonpayable",
      "type": "function"
    },
    {
      "constant": false,
      "inputs": [
        {
          "name": "candidat",
          "type": "address"
        }
      ],
      "name": "rejectcandidat",
      "outputs": [
        {
          "name": "",
          "type": "bool"
        }
      ],
      "payable": false,
      "stateMutability": "nonpayable",
      "type": "function"
    },
    {
      "constant": false,
      "inputs": [
        {
          "name": "candidat",
          "type": "address"
        }
      ],
      "name": "rejectcandidatToRemove",
      "outputs": [
        {
          "name": "",
          "type": "bool"
        }
      ],
      "payable": false,
      "stateMutability": "nonpayable",
      "type": "function"
    },
    {
      "constant": false,
      "inputs": [
        {
          "name": "toMember",
          "type": "address"
        }
      ],
      "name": "rejectMintVoting",
      "outputs": [
        {
          "name": "",
          "type": "bool"
        }
      ],
      "payable": false,
      "stateMutability": "nonpayable",
      "type": "function"
    },
    {
      "constant": false,
      "inputs": [
        {
          "name": "toMember",
          "type": "address"
        }
      ],
      "name": "rejectUnMintVoting",
      "outputs": [
        {
          "name": "",
          "type": "bool"
        }
      ],
      "payable": false,
      "stateMutability": "nonpayable",
      "type": "function"
    },
    {
      "constant": true,
      "inputs": [],
      "name": "getCoinName",
      "outputs": [
        {
          "name": "",
          "type": "string"
        }
      ],
      "payable": false,
      "stateMutability": "view",
      "type": "function"
    },
    {
      "constant": false,
      "inputs": [
        {
          "name": "to",
          "type": "address"
        },
        {
          "name": "value",
          "type": "uint256"
        }
      ],
      "name": "payTo",
      "outputs": [],
      "payable": false,
      "stateMutability": "nonpayable",
      "type": "function"
    },
    {
      "constant": false,
      "inputs": [
        {
          "name": "from",
          "type": "address"
        }
      ],
      "name": "acceptPayment",
      "outputs": [],
      "payable": false,
      "stateMutability": "nonpayable",
      "type": "function"
    },
    {
      "constant": false,
      "inputs": [
        {
          "name": "from",
          "type": "address"
        }
      ],
      "name": "rejectPayment",
      "outputs": [],
      "payable": false,
      "stateMutability": "nonpayable",
      "type": "function"
    },
    {
      "constant": true,
      "inputs": [],
      "name": "totalSupply",
      "outputs": [
        {
          "name": "",
          "type": "uint256"
        }
      ],
      "payable": false,
      "stateMutability": "view",
      "type": "function"
    },
    {
      "constant": true,
      "inputs": [
        {
          "name": "member",
          "type": "address"
        }
      ],
      "name": "balanceOf",
      "outputs": [
        {
          "name": "",
          "type": "uint256"
        }
      ],
      "payable": false,
      "stateMutability": "view",
      "type": "function"
    },
    {
      "constant": true,
      "inputs": [],
      "name": "incomingPaymants",
      "outputs": [
        {
          "name": "",
          "type": "address[255]"
        }
      ],
      "payable": false,
      "stateMutability": "view",
      "type": "function"
    },
    {
      "constant": true,
      "inputs": [],
      "name": "whereIsMyMoney",
      "outputs": [
        {
          "name": "",
          "type": "address[255]"
        }
      ],
      "payable": false,
      "stateMutability": "view",
      "type": "function"
    },
    {
      "constant": true,
      "inputs": [
        {
          "name": "from",
          "type": "address"
        },
        {
          "name": "to",
          "type": "address"
        }
      ],
      "name": "paymantValue",
      "outputs": [
        {
          "name": "",
          "type": "uint256"
        }
      ],
      "payable": false,
      "stateMutability": "view",
      "type": "function"
    },
    {
      "constant": true,
      "inputs": [],
      "name": "getMembers",
      "outputs": [
        {
          "name": "",
          "type": "address[]"
        }
      ],
      "payable": false,
      "stateMutability": "view",
      "type": "function"
    }
  ],
  "bytecode": "0x60806040523480156200001157600080fd5b506040805180820190915260098082527f4272656164436f696e000000000000000000000000000000000000000000000060209092019182526200005891600091620000bd565b506040805180820190915260058082527f425245414400000000000000000000000000000000000000000000000000000060209092019182526200009f91600191620000bd565b5060078054600160a060020a03191633179055600060085562000162565b828054600181600116156101000203166002900490600052602060002090601f016020900481019282601f106200010057805160ff191683800117855562000130565b8280016001018555821562000130579182015b828111156200013057825182559160200191906001019062000113565b506200013e92915062000142565b5090565b6200015f91905b808211156200013e576000815560010162000149565b90565b6133f880620001726000396000f3006080604052600436106101485763ffffffff7c01000000000000000000000000000000000000000000000000000000006000350416630b1ca49a811461014d57806310a3ddc41461018257806310f002b1146101a357806318160ddd146101c45780632a9f1a79146101eb57806333ee19431461020e5780633e70d17b1461022f57806340c10f191461029457806358442f25146102b857806358b1ced7146102dc578063707d2ae21461030357806370a082311461038d57806375c88524146103ae5780637bf08621146103cf5780637e87ad7c146103f357806398041ea3146104415780639eab525314610465578063a0958f411461047a578063aac4975e1461049b578063b68c845e146104b0578063c032846b146104d1578063c29009af1461050a578063d50b7e141461052b578063d944a60f1461054c578063dc672b4014610561575b600080fd5b34801561015957600080fd5b5061016e600160a060020a0360043516610582565b604080519115158252519081900360200190f35b34801561018e57600080fd5b5061016e600160a060020a0360043516610801565b3480156101af57600080fd5b5061016e600160a060020a03600435166108ff565b3480156101d057600080fd5b506101d9610a01565b60408051918252519081900360200190f35b3480156101f757600080fd5b5061020c600160a060020a0360043516610a08565b005b34801561021a57600080fd5b5061016e600160a060020a0360043516610b54565b34801561023b57600080fd5b50610244610ca1565b60408051602080825283518183015283519192839290830191858101910280838360005b83811015610280578181015183820152602001610268565b505050509050019250505060405180910390f35b3480156102a057600080fd5b5061016e600160a060020a0360043516602435610d67565b3480156102c457600080fd5b5061016e600160a060020a0360043516602435611055565b3480156102e857600080fd5b506101d9600160a060020a0360043581169060243516611365565b34801561030f57600080fd5b506103186113f6565b6040805160208082528351818301528351919283929083019185019080838360005b8381101561035257818101518382015260200161033a565b50505050905090810190601f16801561037f5780820380516001836020036101000a031916815260200191505b509250505060405180910390f35b34801561039957600080fd5b506101d9600160a060020a036004351661148c565b3480156103ba57600080fd5b5061016e600160a060020a03600435166114a7565b3480156103db57600080fd5b5061020c600160a060020a0360043516602435611591565b3480156103ff57600080fd5b50610408611752565b6040518082611fe080838360005b8381101561042e578181015183820152602001610416565b5050505090500191505060405180910390f35b34801561044d57600080fd5b5061016e600160a060020a0360043516602435611882565b34801561047157600080fd5b50610244611bd1565b34801561048657600080fd5b5061016e600160a060020a0360043516611c32565b3480156104a757600080fd5b50610408611d72565b3480156104bc57600080fd5b5061020c600160a060020a0360043516611e99565b3480156104dd57600080fd5b506104e6611fe2565b604051808260018111156104f657fe5b60ff16815260200191505060405180910390f35b34801561051657600080fd5b5061016e600160a060020a036004351661206b565b34801561053757600080fd5b5061016e600160a060020a0360043516612155565b34801561055857600080fd5b5061024461225b565b34801561056d57600080fd5b5061016e600160a060020a036004351661231e565b600033600161058f611fe2565b600181111561059a57fe5b14156105cf57600160a060020a03811660009081526009602052604090205460ff1615156001146105ca57600080fd5b6105e6565b600754600160a060020a031633146105e657600080fd5b8260016105f1611fe2565b60018111156105fc57fe5b141561063157600160a060020a03811660009081526009602052604090205460ff16151560011461062c57600080fd5b610648565b600754600160a060020a0316331461064857600080fd5b6106518461243b565b151561065c57600080fd5b6004546101001161066c57600080fd5b610675846124ae565b600161067f611fe2565b600181111561068a57fe5b14801561069957506002546001145b80156106c957506002805433919060009081106106b257fe5b600091825260209091200154600160a060020a0316145b1561074257600160a060020a0384166000908152600960205260408120805460ff19168155600101556106fb84612524565b1561073d5760408051600160a060020a038616815290517f6e76fb4c77256006d9c38ec7d82b45a8c8f3c27b1d6766fffc42dfb8de6844929181900360200190a15b6107f5565b600160a060020a0384166000818152600e6020908152604080832033845282528083208054600160ff1991821681179092558585528285208054909116821790556004805491820181559093527f8a35acfbc15ff81a39ae7d344fd709f28e8600b4aa8c65c6b64bfe7fe36bd19b9092018054600160a060020a03191684179055815192835290517f0968be86abb28a0fe4adb1b87a2bdb2d3a1ab686cd43a73171abcde619e805029281900390910190a15b600192505b5050919050565b60008033600161080f611fe2565b600181111561081a57fe5b141561084f57600160a060020a03811660009081526009602052604090205460ff16151560011461084a57600080fd5b610866565b600754600160a060020a0316331461086657600080fd5b600091505b6003548210156108f55783600160a060020a031660038381548110151561088e57fe5b600091825260209091200154600160a060020a031614156108ea57600160a060020a0384166000908152600d602090815260408083203384529091529020805460ff191660011790556108e0846126a7565b50600192506107fa565b60019091019061086b565b5060009392505050565b60008033600161090d611fe2565b600181111561091857fe5b141561094d57600160a060020a03811660009081526009602052604090205460ff16151560011461094857600080fd5b610964565b600754600160a060020a0316331461096457600080fd5b600091505b6003548210156108f55783600160a060020a031660038381548110151561098c57fe5b600091825260209091200154600160a060020a031614156109f6576109b0846127ce565b5060408051600160a060020a038616815290517fadf858c8064ea3557d5eb29fbac28aa1d8d95fc79ae90c0061fdc6bb2144d91c9181900360200190a1600192506107fa565b600190910190610969565b6008545b90565b6000336001610a15611fe2565b6001811115610a2057fe5b1415610a5557600160a060020a03811660009081526009602052604090205460ff161515600114610a5057600080fd5b610a6c565b600754600160a060020a03163314610a6c57600080fd5b600160a060020a038316600090815260116020908152604080832033845290915281205411610a9a57600080fd5b600160a060020a0383166000908152601160209081526040808320338452825280832054600a90925290912054610ad69163ffffffff61295116565b336000818152600a6020908152604080832094909455600160a060020a038716808352601182528483208484528252848320805493905584519081529081019290925281830181905291519193507feebd93dfda568824f7933abb2b6cbff5f880e80e5a422f8db4f6fb00019b6219919081900360600190a1505050565b60008080336001610b63611fe2565b6001811115610b6e57fe5b1415610ba357600160a060020a03811660009081526009602052604090205460ff161515600114610b9e57600080fd5b610bba565b600754600160a060020a03163314610bba57600080fd5b33600160a060020a0386161415610bd057600080fd5b600092505b600554831015610c945784600160a060020a0316600584815481101515610bf857fe5b600091825260209091200154600160a060020a03161415610c8957600160a060020a0385166000908152600b6020526040812080549190559150610c3b85612964565b5060408051600160a060020a03871681526020810184905281517f0c032369e7e938d809452b3932a85bd6ff09dc452a752d455e6c7eed978c11d5929181900390910190a160019350610c99565b600190920191610bd5565b600093505b505050919050565b6060336001610cae611fe2565b6001811115610cb957fe5b1415610cee57600160a060020a03811660009081526009602052604090205460ff161515600114610ce957600080fd5b610d05565b600754600160a060020a03163314610d0557600080fd5b6004805480602002602001604051908101604052809291908181526020018280548015610d5b57602002820191906000526020600020905b8154600160a060020a03168152600190910190602001808311610d3d575b505050505091505b5090565b6000336001610d74611fe2565b6001811115610d7f57fe5b1415610db457600160a060020a03811660009081526009602052604090205460ff161515600114610daf57600080fd5b610dcb565b600754600160a060020a03163314610dcb57600080fd5b836001610dd6611fe2565b6001811115610de157fe5b1415610e1657600160a060020a03811660009081526009602052604090205460ff161515600114610e1157600080fd5b610e2d565b600754600160a060020a03163314610e2d57600080fd5b60055461010011610e3d57600080fd5b60008411610e4a57600080fd5b600160a060020a0385166000908152600b602052604090205415610e6d57600080fd5b6000610e77611fe2565b6001811115610e8257fe5b1415610f2957600160a060020a0385166000908152600a6020526040902054610eb1908563ffffffff61295116565b600160a060020a0386166000908152600a6020526040902055600854610edd908563ffffffff61295116565b60085560408051600160a060020a03871681526020810186905281517f30385c845b448a36257a6a1716e6ad2e1bc2cbe333cde1e69fe849ad6511adfe929181900390910190a1611048565b6001610f33611fe2565b6001811115610f3e57fe5b148015610f4d57506002546001145b15610f7b57600160a060020a0385166000908152600a6020526040902054610eb1908563ffffffff61295116565b610f8485612ade565b6005805460018082019092557f036b6384b5eca791c62761152d0c79bb0604c104a5fb6f4eb0703f3154bb3db0018054600160a060020a031916600160a060020a0388169081179091556000818152600b60209081526040808320899055600f82528083203384528252808320805460ff1990811687179091558484529281902080549093169094179091558251918252810186905281517f43e76cd0caaf96d8c46fe960ca2cb95bfcef1ab0b25e3e9bc3054da645701f1a929181900390910190a15b600192505b505092915050565b6000336001611062611fe2565b600181111561106d57fe5b14156110a257600160a060020a03811660009081526009602052604090205460ff16151560011461109d57600080fd5b6110b9565b600754600160a060020a031633146110b957600080fd5b8360016110c4611fe2565b60018111156110cf57fe5b141561110457600160a060020a03811660009081526009602052604090205460ff1615156001146110ff57600080fd5b61111b565b600754600160a060020a0316331461111b57600080fd5b6006546101001161112b57600080fd5b6000841161113857600080fd5b600160a060020a0385166000908152600c60205260409020541561115b57600080fd5b600160a060020a0385166000908152600a602052604090205484111561118057600080fd5b600061118a611fe2565b600181111561119557fe5b141561123c57600160a060020a0385166000908152600a60205260409020546111c4908563ffffffff612b5016565b600160a060020a0386166000908152600a60205260409020556008546111f0908563ffffffff612b5016565b60085560408051600160a060020a03871681526020810186905281517f332835a9de2c941919d91948ed14b03a8058e0000e62d7100de2ff5b05fa6378929181900390910190a1611048565b6001611246611fe2565b600181111561125157fe5b14801561126057506002546001145b1561128e57600160a060020a0385166000908152600a60205260409020546111c4908563ffffffff612b5016565b61129785612b62565b6006805460018082019092557ff652222313e28459528d920b65115c16c04f3efc82aaedc97be59f3f377c0d3f018054600160a060020a031916600160a060020a0388169081179091556000818152600c60209081526040808320899055601082528083203384528252808320805460ff1990811687179091558484529281902080549093169094179091558251918252810186905281517fdbd35ad65450c7a166cd57d8ec022a1902c05f3c1daf1e7a49f092e3fee7e4c2929181900390910190a1506001949350505050565b6000336001611372611fe2565b600181111561137d57fe5b14156113b257600160a060020a03811660009081526009602052604090205460ff1615156001146113ad57600080fd5b6113c9565b600754600160a060020a031633146113c957600080fd5b5050600160a060020a03918216600090815260116020908152604080832093909416825291909152205490565b60008054604080516020601f60026000196101006001881615020190951694909404938401819004810282018101909252828152606093909290918301828280156114825780601f1061145757610100808354040283529160200191611482565b820191906000526020600020905b81548152906001019060200180831161146557829003601f168201915b5050505050905090565b600160a060020a03166000908152600a602052604090205490565b6000803360016114b5611fe2565b60018111156114c057fe5b14156114f557600160a060020a03811660009081526009602052604090205460ff1615156001146114f057600080fd5b61150c565b600754600160a060020a0316331461150c57600080fd5b600091505b6006548210156108f55783600160a060020a031660068381548110151561153457fe5b600091825260209091200154600160a060020a0316141561158657600160a060020a03841660009081526010602090815260408083203384529091529020805460ff191660011790556108e084612bd4565b600190910190611511565b33600161159c611fe2565b60018111156115a757fe5b14156115dc57600160a060020a03811660009081526009602052604090205460ff1615156001146115d757600080fd5b6115f3565b600754600160a060020a031633146115f357600080fd5b8260016115fe611fe2565b600181111561160957fe5b141561163e57600160a060020a03811660009081526009602052604090205460ff16151560011461163957600080fd5b611655565b600754600160a060020a0316331461165557600080fd5b336000818152600a6020526040812054859190829003101561167657600080fd5b336000908152601160209081526040808320600160a060020a038a1684529091529020546116aa908663ffffffff61295116565b336000818152601160209081526040808320600160a060020a038c168452825280832094909455918152600a90915220546116eb908663ffffffff612b5016565b336000818152600a6020908152604091829020939093558051918252600160a060020a0389169282019290925280820187905290517f629777e97c687ba3e899fb62b1abe65a4fc512287be8092b1f429286afdfc51d9181900360600190a1505050505050565b61175a613369565b611762613369565b600080336001611770611fe2565b600181111561177b57fe5b14156117b057600160a060020a03811660009081526009602052604090205460ff1615156001146117ab57600080fd5b6117c7565b600754600160a060020a031633146117c757600080fd5b60009250600091505b600254821015611879576000601160006002858154811015156117ef57fe5b6000918252602080832090910154600160a060020a031683528281019390935260409182018120338252909252902054111561186e57600280548390811061183357fe5b600091825260209091200154600160a060020a0316848460ff811061185457fe5b600160a060020a0390921660209290920201526001909201915b6001909101906117d0565b50919392505050565b600080336001611890611fe2565b600181111561189b57fe5b14156118d057600160a060020a03811660009081526009602052604090205460ff1615156001146118cb57600080fd5b6118e7565b600754600160a060020a031633146118e757600080fd5b600254610100116118f757600080fd5b6003546101001161190757600080fd5b600160a060020a038516151561191c57600080fd5b61192585612d1f565b151561193057600080fd5b600091505b6002548210156119875784600160a060020a031660028381548110151561195857fe5b600091825260209091200154600160a060020a0316141561197c576000925061104d565b600190910190611935565b61199085612d89565b600061199a611fe2565b60018111156119a557fe5b1415611a4f57600160a060020a0385166000818152600960209081526040808320805460ff1916600190811782559081018990556002805491820181559093527f405787fa12a823e0f2b7631cc41b3ba8828b3321ca811111fa75cd3aa3bb5ace9092018054600160a060020a03191684179055815192835290517fb251eb052afc73ffd02ffe85ad79990a8b3fed60d76dbc2fa2fdd7123dffd9149281900390910190a1611048565b6001611a59611fe2565b6001811115611a6457fe5b148015611a7357506002546001145b15611b1c57600160a060020a0385166000818152600960209081526040808320805460ff1916600190811782559081018990556002805491820181559093527f405787fa12a823e0f2b7631cc41b3ba8828b3321ca811111fa75cd3aa3bb5ace9092018054600160a060020a03191684179055815192835290517fb251eb052afc73ffd02ffe85ad79990a8b3fed60d76dbc2fa2fdd7123dffd9149281900390910190a1611048565b6003805460018082019092557fc2575a0e9e593c00f959f8c92f12db2869c3395a3b0502d05e2516446f71f85b018054600160a060020a031916600160a060020a0388169081179091556000908152600960205260409020805460ff1916815501849055611b8985610801565b5060408051600160a060020a038716815290517f4e583967d3701a90a6c08a68beab93e5872e74160b6871fe05fa36f2c29c238f9181900360200190a1506001949350505050565b6060600280548060200260200160405190810160405280929190818152602001828054801561148257602002820191906000526020600020905b8154600160a060020a03168152600190910190602001808311611c0b575050505050905090565b60008080336001611c41611fe2565b6001811115611c4c57fe5b1415611c8157600160a060020a03811660009081526009602052604090205460ff161515600114611c7c57600080fd5b611c98565b600754600160a060020a03163314611c9857600080fd5b33600160a060020a0386161415611cae57600080fd5b600092505b600654831015610c945784600160a060020a0316600684815481101515611cd657fe5b600091825260209091200154600160a060020a03161415611d6757600160a060020a0385166000908152600c6020526040812080549190559150611d1985612dfb565b5060408051600160a060020a03871681526020810184905281517fe91085a773cd48f2b4af1a6d588751dbec535f0523df5abc87addedbd7d1d7d1929181900390910190a160019350610c99565b600190920191611cb3565b611d7a613369565b611d82613369565b600080336001611d90611fe2565b6001811115611d9b57fe5b1415611dd057600160a060020a03811660009081526009602052604090205460ff161515600114611dcb57600080fd5b611de7565b600754600160a060020a03163314611de757600080fd5b60009250600091505b600254821015611879573360009081526011602052604081206002805483919086908110611e1a57fe5b6000918252602080832090910154600160a060020a031683528201929092526040019020541115611e8e576002805483908110611e5357fe5b600091825260209091200154600160a060020a0316848460ff8110611e7457fe5b600160a060020a0390921660209290920201526001909201915b600190910190611df0565b6000336001611ea6611fe2565b6001811115611eb157fe5b1415611ee657600160a060020a03811660009081526009602052604090205460ff161515600114611ee157600080fd5b611efd565b600754600160a060020a03163314611efd57600080fd5b600160a060020a038316600090815260116020908152604080832033845290915281205411611f2b57600080fd5b600160a060020a0383166000818152601160209081526040808320338452825280832054938352600a909152902054611f699163ffffffff61295116565b600160a060020a0384166000818152600a60209081526040808320949094556011815283822033808452908252848320805493905584519384529083015281830181905291519193507f8b1770af3405ba19dfaca052d53a4777ca2d6a76468e29e60ecda21e29d0f6dd919081900360600190a1505050565b60025460009081901515611ff95760009150610d63565b60025460001015612063575060005b600254811015612063576009600060028381548110151561202557fe5b6000918252602080832090910154600160a060020a0316835282019290925260400190205460ff161561205b5760019150610d63565b600101612008565b600091505090565b600080336001612079611fe2565b600181111561208457fe5b14156120b957600160a060020a03811660009081526009602052604090205460ff1615156001146120b457600080fd5b6120d0565b600754600160a060020a031633146120d057600080fd5b600091505b6005548210156108f55783600160a060020a03166005838154811015156120f857fe5b600091825260209091200154600160a060020a0316141561214a57600160a060020a0384166000908152600f602090815260408083203384529091529020805460ff191660011790556108e084612f76565b6001909101906120d5565b6000336001612162611fe2565b600181111561216d57fe5b14156121a257600160a060020a03811660009081526009602052604090205460ff16151560011461219d57600080fd5b6121b9565b600754600160a060020a031633146121b957600080fd5b33600160a060020a03841614156121cf57600080fd5b600160a060020a0383166000908152600e6020908152604080832033845290915290205460ff161561220057600080fd5b6122098361243b565b151561225057600160a060020a0383166000908152600e602090815260408083203384529091529020805460ff19166001179055612246836130c1565b5060019150612255565b600091505b50919050565b6060336001612268611fe2565b600181111561227357fe5b14156122a857600160a060020a03811660009081526009602052604090205460ff1615156001146122a357600080fd5b6122bf565b600754600160a060020a031633146122bf57600080fd5b6003805480602002602001604051908101604052809291908181526020018280548015610d5b57602002820191906000526020600020908154600160a060020a03168152600190910190602001808311610d3d57505050505091505090565b60008033600161232c611fe2565b600181111561233757fe5b141561236c57600160a060020a03811660009081526009602052604090205460ff16151560011461236757600080fd5b612383565b600754600160a060020a0316331461238357600080fd5b33600160a060020a038516141561239957600080fd5b600091505b6003548210156108f55783600160a060020a03166003838154811015156123c157fe5b600091825260209091200154600160a060020a03161415612430576123e5846131fe565b156124275760408051600160a060020a038616815290517fa64ad4db878396be678e69ce4a12a7e9d176a72de6fe6654328fbcd4c594e3e19181900360200190a15b600192506107fa565b60019091019061239e565b600454600090819015156124525760019150612255565b5060005b6004548110156124a55782600160a060020a031660048281548110151561247957fe5b600091825260209091200154600160a060020a0316141561249d5760009150612255565b600101612456565b50600192915050565b60005b60025481101561252057600160a060020a0382166000908152600e6020526040812060028054839190859081106124e457fe5b600091825260208083209190910154600160a060020a031683528201929092526040019020805460ff19169115159190911790556001016124b1565b5050565b60025460009081908190811061253957600080fd5b612542846124ae565b60028054600160a060020a0386169190600019810190811061256057fe5b600091825260209091200154600160a060020a031614156125b95760028054600019810190811061258d57fe5b60009182526020909120018054600160a060020a031916905560028054906108e0906000198301613389565b5060009050805b6002546000190181101561268a5781158015612607575083600160a060020a03166002828154811015156125f057fe5b600091825260209091200154600160a060020a0316145b1561261157600191505b6001821515141561268257600280546001830190811061262d57fe5b60009182526020909120015460028054600160a060020a03909216918390811061265357fe5b9060005260206000200160006101000a815481600160a060020a030219169083600160a060020a031602179055505b6001016125c0565b600182151514156108f55760028054600019810190811061258d57fe5b6000805b60025481101561271d57600160a060020a0383166000908152600d6020526040812060028054919291849081106126de57fe5b6000918252602080832090910154600160a060020a0316835282019290925260400190205460ff1615156127155760009150612255565b6001016126ab565b612726836127ce565b1561225057600160a060020a0383166000818152600960209081526040808320805460ff191660019081179091556002805491820181559093527f405787fa12a823e0f2b7631cc41b3ba8828b3321ca811111fa75cd3aa3bb5ace9092018054600160a060020a03191684179055815192835290517fb251eb052afc73ffd02ffe85ad79990a8b3fed60d76dbc2fa2fdd7123dffd9149281900390910190a160019150612255565b6003546000908190819081106127e357600080fd5b6127ec84612d89565b60038054600160a060020a0386169190600019810190811061280a57fe5b600091825260209091200154600160a060020a031614156128635760038054600019810190811061283757fe5b60009182526020909120018054600160a060020a031916905560038054906108e0906000198301613389565b5060009050805b6003546000190181101561293457811580156128b1575083600160a060020a031660038281548110151561289a57fe5b600091825260209091200154600160a060020a0316145b156128bb57600191505b6001821515141561292c5760038054600183019081106128d757fe5b60009182526020909120015460038054600160a060020a0390921691839081106128fd57fe5b9060005260206000200160006101000a815481600160a060020a030219169083600160a060020a031602179055505b60010161286a565b600182151514156108f55760038054600019810190811061283757fe5b8181018281101561295e57fe5b92915050565b60055460009081908190811061297957600080fd5b60058054600160a060020a0386169190600019810190811061299757fe5b600091825260209091200154600160a060020a031614156129f0576005805460001981019081106129c457fe5b60009182526020909120018054600160a060020a031916905560058054906108e0906000198301613389565b5060009050805b60055460001901811015612ac15781158015612a3e575083600160a060020a0316600582815481101515612a2757fe5b600091825260209091200154600160a060020a0316145b15612a4857600191505b60018215151415612ab9576005805460018301908110612a6457fe5b60009182526020909120015460058054600160a060020a039092169183908110612a8a57fe5b9060005260206000200160006101000a815481600160a060020a030219169083600160a060020a031602179055505b6001016129f7565b600182151514156108f5576005805460001981019081106129c457fe5b60005b60025481101561252057600160a060020a0382166000908152600f602052604081206002805483919085908110612b1457fe5b600091825260208083209190910154600160a060020a031683528201929092526040019020805460ff1916911515919091179055600101612ae1565b600082821115612b5c57fe5b50900390565b60005b60025481101561252057600160a060020a03821660009081526010602052604081206002805483919085908110612b9857fe5b600091825260208083209190910154600160a060020a031683528201929092526040019020805460ff1916911515919091179055600101612b65565b600080805b600254821015612c4e57600160a060020a03841660009081526010602052604081206002805491929185908110612c0c57fe5b6000918252602080832090910154600160a060020a0316835282019290925260400190205460ff161515612c4357600092506107fa565b600190910190612bd9565b612c5784612dfb565b156108f55750600160a060020a0383166000908152600c6020908152604080832054600a90925290912054612c92908263ffffffff612b5016565b600160a060020a0385166000908152600a6020526040902055600854612cbe908263ffffffff612b5016565b600855600160a060020a0384166000818152600c60209081526040808320929092558151928352820183905280517f332835a9de2c941919d91948ed14b03a8058e0000e62d7100de2ff5b05fa63789281900390910190a1600192506107fa565b60035460009081901515612d365760019150612255565b5060005b6003548110156124a55782600160a060020a0316600382815481101515612d5d57fe5b600091825260209091200154600160a060020a03161415612d815760009150612255565b600101612d3a565b60005b60025481101561252057600160a060020a0382166000908152600d602052604081206002805483919085908110612dbf57fe5b600091825260208083209190910154600160a060020a031683528201929092526040019020805460ff1916911515919091179055600101612d8c565b600654600090819081908110612e1057600080fd5b60065460058054600160a060020a0387169260001901908110612e2f57fe5b600091825260209091200154600160a060020a03161415612e8857600680546000198101908110612e5c57fe5b60009182526020909120018054600160a060020a031916905560068054906108e0906000198301613389565b5060009050805b60065460001901811015612f595781158015612ed6575083600160a060020a0316600682815481101515612ebf57fe5b600091825260209091200154600160a060020a0316145b15612ee057600191505b60018215151415612f51576006805460018301908110612efc57fe5b60009182526020909120015460068054600160a060020a039092169183908110612f2257fe5b9060005260206000200160006101000a815481600160a060020a030219169083600160a060020a031602179055505b600101612e8f565b600182151514156108f557600680546000198101908110612e5c57fe5b600080805b600254821015612ff057600160a060020a0384166000908152600f602052604081206002805491929185908110612fae57fe5b6000918252602080832090910154600160a060020a0316835282019290925260400190205460ff161515612fe557600092506107fa565b600190910190612f7b565b612ff984612964565b156108f55750600160a060020a0383166000908152600b6020908152604080832054600a90925290912054613034908263ffffffff61295116565b600160a060020a0385166000908152600a6020526040902055600854613060908263ffffffff61295116565b600855600160a060020a0384166000818152600b60209081526040808320929092558151928352820183905280517f30385c845b448a36257a6a1716e6ad2e1bc2cbe333cde1e69fe849ad6511adfe9281900390910190a1600192506107fa565b6000805b60025481101561313757600160a060020a0383166000908152600e6020526040812060028054919291849081106130f857fe5b6000918252602080832090910154600160a060020a0316835282019290925260400190205460ff16151561312f5760009150612255565b6001016130c5565b613140836131fe565b1561225057600160a060020a0383166000908152600960205260408120805460ff191681556001015561317283612524565b1561225057600160a060020a0383166000908152600a60205260409020546008546131a29163ffffffff612b5016565b600855600160a060020a0383166000818152600a6020908152604080832092909255815192835290517f6e76fb4c77256006d9c38ec7d82b45a8c8f3c27b1d6766fffc42dfb8de6844929281900390910190a160019150612255565b6004805460009182918291600160a060020a03861691600019810190811061322257fe5b600091825260209091200154600160a060020a0316141561327b5760048054600019810190811061324f57fe5b60009182526020909120018054600160a060020a031916905560048054906108e0906000198301613389565b5060009050805b6004546000190181101561334c57811580156132c9575083600160a060020a03166004828154811015156132b257fe5b600091825260209091200154600160a060020a0316145b156132d357600191505b600182151514156133445760048054600183019081106132ef57fe5b60009182526020909120015460048054600160a060020a03909216918390811061331557fe5b9060005260206000200160006101000a815481600160a060020a030219169083600160a060020a031602179055505b600101613282565b600182151514156108f55760048054600019810190811061324f57fe5b611fe06040519081016040528060ff906020820280388339509192915050565b8154818355818111156133ad576000838152602090206133ad9181019083016133b2565b505050565b610a0591905b80821115610d6357600081556001016133b85600a165627a7a7230582082525293ef768aa09fc08b280000741ca10c40fcb83c00dcd2845b64aa1fe00a0029",
  "source": "pragma solidity ^0.4.22;\r\n\r\n\r\ncontract BreadCoin {\r\n    using SafeMath for uint256;\r\n\r\n    struct Member {\r\n        bool memberStatus;\r\n        uint256 Phone; //          ,       \r\n    }\r\n    enum ContractStatus{ Initsialising, Normal }\r\n    string name;\r\n    string code;\r\n    address[] memberList; // \r\n    address[] candidats; //    \r\n    address[] candidatsToRemove; //    \r\n    address[] toMint; //    \r\n    address[] toUnMint; //    \r\n    address Owner;\r\n    \r\n    uint256 TotalSupply;\r\n    mapping (address => Member) Members;\r\n    mapping (address => uint256) balances;\r\n    mapping (address => uint256) mintValue;\r\n    mapping (address => uint256) unMintValue;\r\n    // ,  , \r\n    mapping (address => mapping (address => bool)) internal candidatVoting; //      \r\n    // ,  , \r\n    mapping (address => mapping (address => bool)) internal candidatRemoveVoting; //     \r\n    // ,  , \r\n    mapping (address => mapping (address => bool)) internal mintVoting; //    \r\n    // ,  , \r\n    mapping (address => mapping (address => bool)) internal unMintVoting; //    \r\n    //  , , \r\n    mapping (address => mapping (address => uint256)) internal payments; //      \r\n\r\n//EVENTS---_------------------------------------------------------------------  \r\n    event NewCandidatVotingToAdd(address candidat); //  \r\n    event MemberAdded(address member); //   \r\n    event Rejectedcandidat(address candidat); //   \r\n    event NewPayment(address from, address to, uint256 value); //   \r\n    event PaymentAccepted(address from, address to, uint256 value);//   \r\n    event PaymentRejected(address from, address to, uint256 value);//   \r\n    event MemberRemoved(address member); //  \r\n    event NewCandidatVotingToRemove(address member); //    \r\n    event MemberNotRemoved(address candidat); //    \r\n    event Minted(address toMember, uint256 value); //     \r\n    event NotMinted(address toMember, uint256 value);//     \r\n    event NotUnMinted(address toMember, uint256 value);//   -  \r\n    event NewMintVoting(address toMember, uint256 value); //    \r\n    event UnMinted(address toMember, uint256 value); //   -  \r\n    event NewUnMintVoting(address toMember, uint256 value);//   - \r\n\r\n//MODIFER---------------------------------------------------------------------  \r\n    modifier isMember(address member){\r\n        if (getContractStatus() == ContractStatus.Normal){\r\n            require(Members[member].memberStatus == true);\r\n        }\r\n        else {\r\n            require(msg.sender == Owner);\r\n        }\r\n        _;\r\n    }\r\n\r\n    modifier contractIsNormall(){\r\n        require(getContractStatus() == ContractStatus.Normal);\r\n        _;\r\n    }\r\n\r\n    modifier haveMoney(address member, uint256 value){\r\n        require((balances[member] - value) >= 0);\r\n        _;\r\n    }\r\n\r\n\r\n\r\n//CONSTRUCTOR------------------------------------------------------------------\r\n    constructor()\r\n        public \r\n       // DetailedERC20(\"BreadCoin\", \"BREAD\", 18)\r\n    {\r\n        name = \"BreadCoin\";\r\n        code = \"BREAD\";\r\n        Owner = msg.sender;\r\n        TotalSupply = 0;\r\n    }\r\n\r\n\r\n//BreadCoin Function\r\n    function unMint(address toMember, uint256 value)\r\n        public\r\n        isMember(msg.sender)\r\n        isMember(toMember)\r\n        returns (bool)\r\n    {\r\n        require(toUnMint.length < 256);\r\n        require(value > 0);\r\n        require(unMintValue[toMember] == 0);\r\n        require(balances[toMember] >= value);\r\n        \r\n        //    ,   -  \r\n        if (getContractStatus() == ContractStatus.Initsialising){\r\n            balances[toMember] = balances[toMember].sub(value);\r\n            TotalSupply = TotalSupply.sub(value);      \r\n            emit UnMinted(toMember, value);      \r\n        }\r\n        //       -  \r\n        else if ((getContractStatus() == ContractStatus.Normal) && (memberList.length == 1)){\r\n            balances[toMember] = balances[toMember].sub(value);\r\n            TotalSupply = TotalSupply.sub(value);      \r\n            emit UnMinted(toMember, value);  \r\n        }\r\n        //    \r\n        else {\r\n            resetUnMintVoting(toMember);\r\n            toUnMint.push(toMember);\r\n            unMintValue[toMember] = value; \r\n            unMintVoting[toMember][msg.sender] = true;\r\n            unMintVoting[toMember][toMember] = true;\r\n            emit NewUnMintVoting(toMember, value);\r\n        }\r\n\r\n        return true;\r\n    }\r\n\r\n    function mint(address toMember, uint256 value)\r\n        public\r\n        isMember(msg.sender)\r\n        isMember(toMember)\r\n        returns (bool)\r\n    {\r\n        require(toMint.length < 256);\r\n        require(value > 0);\r\n        require(mintValue[toMember] == 0);\r\n        \r\n        //    ,     \r\n        if (getContractStatus() == ContractStatus.Initsialising){\r\n            balances[toMember] = balances[toMember].add(value);\r\n            TotalSupply = TotalSupply.add(value);      \r\n            emit Minted(toMember, value);      \r\n        }\r\n        //         \r\n        else if ((getContractStatus() == ContractStatus.Normal) && (memberList.length == 1)){\r\n            balances[toMember] = balances[toMember].add(value);\r\n            TotalSupply = TotalSupply.add(value);      \r\n            emit Minted(toMember, value);  \r\n        }\r\n        //    \r\n        else {\r\n            resetMintVoting(toMember);\r\n            toMint.push(toMember);\r\n            mintValue[toMember] = value; \r\n            mintVoting[toMember][msg.sender] = true;\r\n            mintVoting[toMember][toMember] = true;\r\n            emit NewMintVoting(toMember, value);\r\n        }\r\n\r\n        return true;\r\n    }\r\n\r\n    function resetMintVoting(address toMember) internal{\r\n        for (uint i = 0; i < memberList.length; i++) mintVoting[toMember][memberList[i]] = false;\r\n    }\r\n\r\n    function resetUnMintVoting(address toMember) internal{\r\n        for (uint i = 0; i < memberList.length; i++) unMintVoting[toMember][memberList[i]] = false;\r\n    }\r\n\r\n    function acceptMint(address toMember) public isMember(msg.sender) returns (bool){\r\n        //     ,    \r\n        for (uint i = 0; i < toMint.length; i++){\r\n            if (toMint[i] == toMember){\r\n                mintVoting[toMember][msg.sender] = true;\r\n                votingToMintIsEnd(toMember);\r\n                return true;\r\n            }\r\n        } \r\n\r\n        return false;\r\n    }\r\n\r\n    function acceptUnMint(address toMember) public isMember(msg.sender) returns (bool){\r\n        //     ,    \r\n        for (uint i = 0; i < toUnMint.length; i++){\r\n            if (toUnMint[i] == toMember){\r\n                unMintVoting[toMember][msg.sender] = true;\r\n                votingToUnMintIsEnd(toMember);\r\n                return true;\r\n            }\r\n        } \r\n\r\n        return false;\r\n    }\r\n\r\n    function votingToMintIsEnd(address toMember) internal returns (bool){\r\n\r\n        //       \r\n        for (uint i = 0; i < memberList.length; i++){\r\n            if (!mintVoting[toMember][memberList[i]]) return false;\r\n        }\r\n        //       ...\r\n        if(deleteMemberToMint(toMember)){\r\n            uint256 value = mintValue[toMember];\r\n            balances[toMember] = balances[toMember].add(value);\r\n            TotalSupply = TotalSupply.add(value);\r\n            mintValue[toMember] = 0;\r\n            emit Minted(toMember, value);\r\n            return true;\r\n        }\r\n        return false;\r\n    }\r\n\r\n    function votingToUnMintIsEnd(address toMember) internal returns (bool){\r\n\r\n        //       \r\n        for (uint i = 0; i < memberList.length; i++){\r\n            if (!unMintVoting[toMember][memberList[i]]) return false;\r\n        }\r\n        //       ...\r\n        if(deleteMemberToUnMint(toMember)){\r\n            uint256 value = unMintValue[toMember];\r\n            balances[toMember] = balances[toMember].sub(value);\r\n            TotalSupply = TotalSupply.sub(value);\r\n            unMintValue[toMember] = 0;\r\n            emit UnMinted(toMember, value);\r\n            return true;\r\n        }\r\n        return false;\r\n    }\r\n\r\n    function getContractStatus() public view returns (ContractStatus){\r\n        if (memberList.length == 0) return ContractStatus.Initsialising;\r\n        if (memberList.length > 0){\r\n            for (uint i = 0; i < memberList.length; i++) {\r\n                if (Members[memberList[i]].memberStatus) return ContractStatus.Normal;\r\n            }\r\n        }\r\n        return ContractStatus.Initsialising;\r\n    }\r\n\r\n    function addMember(address member, uint256 phone) \r\n        public \r\n        isMember(msg.sender)\r\n        returns (bool)\r\n    {\r\n        require(memberList.length<256);\r\n        require(candidats.length<256);\r\n        require(member != address(0));\r\n        require(candidatToAddIsNotCandidat(member));\r\n        for (uint i = 0; i < memberList.length; i++) if (memberList[i] == member) return false;\r\n        resetVotingAddMember(member);\r\n\r\n        //    ,     \r\n        if (getContractStatus() == ContractStatus.Initsialising){\r\n            Members[member].memberStatus = true;\r\n            Members[member].Phone = phone;\r\n            memberList.push(member);   \r\n            emit MemberAdded(member);      \r\n        }\r\n        //         ,      \r\n        else if ((getContractStatus() == ContractStatus.Normal) && (memberList.length == 1)){\r\n            Members[member].memberStatus = true;\r\n            Members[member].Phone = phone;\r\n            memberList.push(member);   \r\n            emit MemberAdded(member);   \r\n        }\r\n        //      \r\n        else {\r\n            candidats.push(member);\r\n            Members[member].memberStatus = false;\r\n            Members[member].Phone = phone;\r\n            acceptcandidat(member);\r\n            emit NewCandidatVotingToAdd(member);\r\n        }\r\n        return true;\r\n    }\r\n\r\n    function candidatToAddIsNotCandidat(address candidat) internal view returns (bool){\r\n        if (candidats.length == 0) return true;\r\n        for (uint i = 0; i < candidats.length; i++) if (candidats[i] == candidat) return false;\r\n        return true;\r\n    }\r\n\r\n    function candidatToRemoveIsNotCandidat(address candidat) internal view returns (bool){\r\n        if (candidatsToRemove.length == 0) return true;\r\n        for (uint i = 0; i < candidatsToRemove.length; i++) if (candidatsToRemove[i] == candidat) return false;\r\n        return true;\r\n    }\r\n\r\n    function removeMember(address candidat) \r\n        public \r\n        isMember(msg.sender)\r\n        isMember(candidat)\r\n        returns (bool)\r\n    {\r\n        require(candidatToRemoveIsNotCandidat(candidat));\r\n        require(candidatsToRemove.length<256);\r\n        resetVotingRemoveMember(candidat);\r\n        if ((getContractStatus() == ContractStatus.Normal) && (memberList.length == 1) && (memberList[0] == msg.sender)){\r\n            delete(Members[candidat].memberStatus);\r\n            delete(Members[candidat].Phone);\r\n            if (removeMemberToMemberList(candidat)) emit MemberRemoved(candidat);   \r\n        }\r\n        else {\r\n            candidatRemoveVoting[candidat][msg.sender] = true;\r\n            candidatRemoveVoting[candidat][candidat] = true;\r\n            candidatsToRemove.push(candidat);\r\n            emit NewCandidatVotingToRemove(candidat);\r\n        }\r\n        return true;\r\n    }\r\n\r\n    function getCandidatsToAdd() public view isMember(msg.sender) returns (address[]) {\r\n        return candidats;\r\n    }\r\n\r\n    function getCandidatsToRemove() public view isMember(msg.sender) returns (address[]) {\r\n        return candidatsToRemove;\r\n    }\r\n\r\n    function acceptcandidat(address candidat) public isMember(msg.sender) returns (bool){\r\n        //     ,    \r\n        for (uint i = 0; i < candidats.length; i++){\r\n            if (candidats[i] == candidat){\r\n                candidatVoting[candidat][msg.sender] = true;\r\n                votingToAddMemberIsEnd(candidat);\r\n                return true;\r\n            }\r\n        } \r\n\r\n        return false;\r\n    }\r\n\r\n    function acceptcandidatToRemove(address candidat) public isMember(msg.sender) returns (bool){\r\n        require(msg.sender != candidat);\r\n        require(!candidatRemoveVoting[candidat][msg.sender]);\r\n        //     ,    \r\n        if (!candidatToRemoveIsNotCandidat(candidat)){\r\n            candidatRemoveVoting[candidat][msg.sender] = true;\r\n            votingToRemoveMemberIsEnd(candidat);\r\n            return true;\r\n        }\r\n        return false;\r\n    }\r\n\r\n    function rejectcandidat(address candidat) public isMember(msg.sender) returns (bool){\r\n        //     ,    \r\n        for (uint i = 0; i < candidats.length; i++){\r\n            if (candidats[i] == candidat){\r\n                deletecandidatAddMember(candidat);\r\n                emit Rejectedcandidat(candidat);\r\n                return true;\r\n            }\r\n        }\r\n        return false;\r\n    }\r\n\r\n    function rejectcandidatToRemove(address candidat) public isMember(msg.sender) returns (bool){\r\n        require(msg.sender != candidat);\r\n        //     ,    \r\n        for (uint i = 0; i < candidats.length; i++){\r\n            if (candidats[i] == candidat){\r\n\r\n                if (deletecandidatRemoveMember(candidat))\r\n                    emit MemberNotRemoved(candidat);\r\n                return true;\r\n            }\r\n        }\r\n        return false;\r\n    }\r\n\r\n    function rejectMintVoting(address toMember) public isMember(msg.sender) returns (bool){\r\n        require(msg.sender != toMember);\r\n        //    ,    \r\n        for (uint i = 0; i < toMint.length; i++){\r\n            if (toMint[i] == toMember){\r\n                uint256 value = mintValue[toMember];\r\n                mintValue[toMember] = 0;\r\n                deleteMemberToMint(toMember);\r\n                emit NotMinted(toMember,value);\r\n                return true;\r\n            }\r\n        }\r\n        return false;\r\n    }\r\n\r\n    function rejectUnMintVoting(address toMember) public isMember(msg.sender) returns (bool){\r\n        require(msg.sender != toMember);\r\n        //    ,    \r\n        for (uint i = 0; i < toUnMint.length; i++){\r\n            if (toUnMint[i] == toMember){\r\n                uint256 value = unMintValue[toMember];\r\n                unMintValue[toMember] = 0;\r\n                deleteMemberToUnMint(toMember);\r\n                emit NotUnMinted(toMember,value);\r\n                return true;\r\n            }\r\n        }\r\n        return false;\r\n    }\r\n\r\n    function votingToAddMemberIsEnd(address candidat) internal returns (bool){\r\n\r\n        //       \r\n        for (uint i = 0; i < memberList.length; i++){\r\n            if (!candidatVoting[candidat][memberList[i]]) return false;\r\n        }\r\n        //     ...\r\n        if(deletecandidatAddMember(candidat)){\r\n            //  \r\n            Members[candidat].memberStatus = true;\r\n            memberList.push(candidat);   \r\n            emit MemberAdded(candidat); \r\n            return true;\r\n        }\r\n        return false;\r\n    }\r\n\r\n    function votingToRemoveMemberIsEnd(address candidat) internal returns (bool){\r\n\r\n        //       \r\n        for (uint i = 0; i < memberList.length; i++){\r\n            if (!candidatRemoveVoting[candidat][memberList[i]]) return false;\r\n        }\r\n        //     ...\r\n        if(deletecandidatRemoveMember(candidat)){\r\n            //  \r\n            delete(Members[candidat].memberStatus);\r\n            delete(Members[candidat].Phone);\r\n            if (removeMemberToMemberList(candidat)) \r\n            { \r\n                TotalSupply = TotalSupply.sub(balances[candidat]);\r\n                balances[candidat] = 0;\r\n                emit MemberRemoved(candidat); \r\n                return true;\r\n            }\r\n            \r\n        }\r\n        return false;\r\n    }\r\n\r\n    function resetVotingAddMember(address candidat) internal{\r\n        for (uint i = 0; i < memberList.length; i++) candidatVoting[candidat][memberList[i]] = false;\r\n    }\r\n\r\n    function resetVotingRemoveMember(address candidat) internal{\r\n        for (uint i = 0; i < memberList.length; i++) candidatRemoveVoting[candidat][memberList[i]] = false;\r\n    }\r\n\r\n    function removeMemberToMemberList(address member) internal returns (bool){\r\n        require(memberList.length>0);\r\n        //    ,         \r\n        resetVotingRemoveMember(member);\r\n        //      \r\n        if (memberList[memberList.length - 1] == member){\r\n            delete memberList[memberList.length - 1];\r\n            memberList.length--;\r\n            return true;\r\n\t\t} \r\n\t\telse \r\n\t\t{\r\n            bool shift = false;\r\n            for (uint i = 0; i < memberList.length - 1; i++)\r\n\t\t\t{\r\n                if (!shift && memberList[i] == member)\r\n                {\r\n                    shift = true;\r\n                }\r\n            \r\n                if (shift == true) \r\n                {\r\n                    memberList[i] = memberList[i+1];\r\n                }\r\n            }\r\n\r\n            if (shift == true)\r\n\t\t\t{\r\n                delete memberList[memberList.length-1];\r\n                memberList.length--;\r\n                return true;\r\n\t\t\t}\t\r\n\t\t}\t\r\n\r\n\r\n        return false;\r\n    }\r\n\r\n    function deletecandidatAddMember(address candidat) internal returns (bool){\r\n        require(candidats.length>0);\r\n        //    ,         \r\n        resetVotingAddMember(candidat);\r\n        //      \r\n        if (candidats[candidats.length - 1] == candidat){\r\n            delete candidats[candidats.length - 1];\r\n            candidats.length--;\r\n            return true;\r\n\t\t} \r\n\t\telse \r\n\t\t{\r\n            bool shift = false;\r\n            for (uint i = 0; i < candidats.length - 1; i++)\r\n\t\t\t{\r\n                if (!shift && candidats[i] == candidat)\r\n                {\r\n                    shift = true;\r\n                }\r\n            \r\n                if (shift == true) \r\n                {\r\n                    candidats[i] = candidats[i+1];\r\n                }\r\n            }\r\n\r\n            if (shift == true)\r\n\t\t\t{\r\n                delete candidats[candidats.length-1];\r\n                candidats.length--;\r\n                return true;\r\n\t\t\t}\t\r\n\t\t}\t\r\n\r\n\r\n        return false;\r\n    }\r\n\r\n    function deleteMemberToMint(address toMember) internal returns (bool){\r\n        require(toMint.length > 0);\r\n        //      \r\n        if (toMint[toMint.length - 1] == toMember){\r\n            delete toMint[toMint.length - 1];\r\n            toMint.length--;\r\n            return true;\r\n\t\t} \r\n\t\telse \r\n\t\t{\r\n            bool shift = false;\r\n            for (uint i = 0; i < toMint.length - 1; i++)\r\n\t\t\t{\r\n                if (!shift && toMint[i] == toMember)\r\n                {\r\n                    shift = true;\r\n                }\r\n            \r\n                if (shift == true) \r\n                {\r\n                    toMint[i] = toMint[i+1];\r\n                }\r\n            }\r\n\r\n            if (shift == true)\r\n\t\t\t{\r\n                delete toMint[toMint.length-1];\r\n                toMint.length--;\r\n                return true;\r\n\t\t\t}\t\r\n\t\t}\t\r\n\r\n\r\n        return false;\r\n    }\r\n\r\n    function deleteMemberToUnMint(address toMember) internal returns (bool){\r\n        require(toUnMint.length > 0);\r\n        //      \r\n        if (toMint[toUnMint.length - 1] == toMember){\r\n            delete toUnMint[toUnMint.length - 1];\r\n            toUnMint.length--;\r\n            return true;\r\n\t\t} \r\n\t\telse \r\n\t\t{\r\n            bool shift = false;\r\n            for (uint i = 0; i < toUnMint.length - 1; i++)\r\n\t\t\t{\r\n                if (!shift && toUnMint[i] == toMember)\r\n                {\r\n                    shift = true;\r\n                }\r\n            \r\n                if (shift == true) \r\n                {\r\n                    toUnMint[i] = toUnMint[i+1];\r\n                }\r\n            }\r\n\r\n            if (shift == true)\r\n\t\t\t{\r\n                delete toUnMint[toUnMint.length-1];\r\n                toUnMint.length--;\r\n                return true;\r\n\t\t\t}\t\r\n\t\t}\t\r\n        return false;\r\n    }\r\n\r\n    function deletecandidatRemoveMember(address candidat) internal returns (bool){\r\n        //      \r\n        if (candidatsToRemove[candidatsToRemove.length - 1] == candidat){\r\n            delete candidatsToRemove[candidatsToRemove.length - 1];\r\n            candidatsToRemove.length--;\r\n            return true;\r\n\t\t} \r\n\t\telse \r\n\t\t{\r\n            bool shift = false;\r\n            for (uint i = 0; i < candidatsToRemove.length - 1; i++)\r\n\t\t\t{\r\n                if (!shift && candidatsToRemove[i] == candidat)\r\n                {\r\n                    shift = true;\r\n                }\r\n            \r\n                if (shift == true) \r\n                {\r\n                    candidatsToRemove[i] = candidatsToRemove[i+1];\r\n                }\r\n            }\r\n\r\n            if (shift == true)\r\n\t\t\t{\r\n                delete candidatsToRemove[candidatsToRemove.length-1];\r\n                candidatsToRemove.length--;\r\n                return true;\r\n\t\t\t}\t\r\n\t\t}\t\r\n\r\n\r\n        return false;\r\n    }\r\n    function getCoinName() public view returns (string){\r\n        return name;\r\n    }\r\n\r\n    function payTo(address to, uint256 value)\r\n        public\r\n        isMember(msg.sender)\r\n        isMember(to)\r\n        haveMoney(msg.sender, value)\r\n    {\r\n        payments[msg.sender][to] = payments[msg.sender][to].add(value);\r\n        balances[msg.sender] = balances[msg.sender].sub(value);\r\n        emit NewPayment(msg.sender, to, value);\r\n    }\r\n\r\n    function acceptPayment(address from)\r\n        public\r\n        isMember(msg.sender)\r\n    {\r\n        require(payments[from][msg.sender] > 0);\r\n        balances[msg.sender] = balances[msg.sender].add(payments[from][msg.sender]);\r\n        uint256 pay = payments[from][msg.sender];\r\n        payments[from][msg.sender] = 0;\r\n        emit PaymentAccepted(from, msg.sender, pay);\r\n    }  \r\n\r\n    function rejectPayment(address from)\r\n        public\r\n        isMember(msg.sender)\r\n    {\r\n        require(payments[from][msg.sender] > 0);\r\n        balances[from] = balances[from].add(payments[from][msg.sender]);\r\n        uint256 pay = payments[from][msg.sender];\r\n        payments[from][msg.sender] = 0;\r\n        emit PaymentRejected(from, msg.sender, pay);\r\n    }   \r\n\r\n    function totalSupply() public view returns (uint256){\r\n        return TotalSupply;\r\n    }\r\n\r\n    function balanceOf(address member) public view returns (uint256){\r\n        return balances[member];\r\n    }\r\n\r\n    function incomingPaymants()\r\n        public\r\n        view\r\n        isMember(msg.sender)\r\n        returns (address[255])\r\n    {\r\n        address[255] memory IncomingPaymentsFrom;\r\n        uint index = 0;\r\n        for (uint i = 0; i < memberList.length; i++) {\r\n            if (payments[memberList[i]][msg.sender] > 0) {\r\n                IncomingPaymentsFrom[index] = memberList[i];\r\n                index++;\r\n            }\r\n        }\r\n        return IncomingPaymentsFrom;\r\n    }\r\n\r\n    function whereIsMyMoney()\r\n        public\r\n        view\r\n        isMember(msg.sender)\r\n        returns (address[255])\r\n    {\r\n        address[255] memory PaymentsTo;\r\n        uint index = 0;\r\n        for (uint i = 0; i < memberList.length; i++) {\r\n            if (payments[msg.sender][memberList[i]] > 0) {\r\n                PaymentsTo[index] = memberList[i];\r\n                index++;\r\n            }\r\n        }\r\n        return PaymentsTo;\r\n    }\r\n\r\n    function paymantValue(address from, address to)\r\n        public\r\n        view\r\n        isMember(msg.sender)\r\n        returns (uint256)\r\n    {\r\n        return payments[from][to];\r\n    }\r\n    function getMembers()\r\n        public\r\n        view\r\n        returns (address[])\r\n    {\r\n        return memberList;\r\n    }\r\n}\r\n\r\n\r\n/**\r\n * @title SafeMath\r\n * @dev Math operations with safety checks that throw on error\r\n */\r\nlibrary SafeMath {\r\n\r\n    /**\r\n    * @dev Multiplies two numbers, throws on overflow.\r\n    */\r\n    function mul(uint256 a, uint256 b) internal pure returns (uint256 c) {\r\n        if (a == 0) {\r\n            return 0;\r\n        }\r\n        c = a * b;\r\n        assert(c / a == b);\r\n        return c;\r\n    }\r\n\r\n    /**\r\n    * @dev Integer division of two numbers, truncating the quotient.\r\n    */\r\n    function div(uint256 a, uint256 b) internal pure returns (uint256) {\r\n        // assert(b > 0); // Solidity automatically throws when dividing by 0\r\n        // uint256 c = a / b;\r\n        // assert(a == b * c + a % b); // There is no case in which this doesn't hold\r\n        return a / b;\r\n    }\r\n\r\n    /**\r\n    * @dev Subtracts two numbers, throws on overflow (i.e. if subtrahend is greater than minuend).\r\n    */\r\n    function sub(uint256 a, uint256 b) internal pure returns (uint256) {\r\n        assert(b <= a);\r\n        return a - b;\r\n    }\r\n\r\n    /**\r\n    * @dev Adds two numbers, throws on overflow.\r\n    */\r\n    function add(uint256 a, uint256 b) internal pure returns (uint256 c) {\r\n        c = a + b;\r\n        assert(c >= a);\r\n        return c;\r\n    }\r\n}\r\n",
  "sourcePath": "C:\\Users\\Demidkin\\Projects\\Race\\contracts\\BreadCoin.sol",
  "compiler": {
    "name": "solc",
    "version": "0.4.24+commit.e67f0147.Emscripten.clang"
  },
  "schemaVersion": "2.0.0",
  "updatedAt": "2018-06-06T13:38:56.044Z"
}