{
  "contractName": "Race",
  "abi": [
    {
      "constant": true,
      "inputs": [
        {
          "name": "",
          "type": "uint256"
        }
      ],
      "name": "highestBids",
      "outputs": [
        {
          "name": "",
          "type": "uint256"
        }
      ],
      "payable": false,
      "stateMutability": "view",
      "type": "function"
    },
    {
      "constant": true,
      "inputs": [
        {
          "name": "",
          "type": "uint256"
        }
      ],
      "name": "highestBidders",
      "outputs": [
        {
          "name": "",
          "type": "address"
        }
      ],
      "payable": false,
      "stateMutability": "view",
      "type": "function"
    },
    {
      "inputs": [
        {
          "name": "_beneficiary",
          "type": "address"
        },
        {
          "name": "_auctionEndDate",
          "type": "uint256"
        },
        {
          "name": "_raceEndDate",
          "type": "uint256"
        },
        {
          "name": "_maxCar",
          "type": "uint256"
        }
      ],
      "payable": false,
      "stateMutability": "nonpayable",
      "type": "constructor"
    },
    {
      "anonymous": false,
      "inputs": [
        {
          "indexed": false,
          "name": "sender",
          "type": "address"
        },
        {
          "indexed": false,
          "name": "value",
          "type": "uint256"
        },
        {
          "indexed": false,
          "name": "carIndex",
          "type": "uint256"
        }
      ],
      "name": "HighestBidIncreased",
      "type": "event"
    },
    {
      "anonymous": false,
      "inputs": [],
      "name": "AuctionEnded",
      "type": "event"
    },
    {
      "constant": true,
      "inputs": [],
      "name": "getContractStatus",
      "outputs": [
        {
          "name": "",
          "type": "uint8"
        }
      ],
      "payable": false,
      "stateMutability": "view",
      "type": "function"
    },
    {
      "constant": false,
      "inputs": [
        {
          "name": "carIndex",
          "type": "uint256"
        }
      ],
      "name": "bid",
      "outputs": [],
      "payable": true,
      "stateMutability": "payable",
      "type": "function"
    },
    {
      "constant": false,
      "inputs": [],
      "name": "withdraw",
      "outputs": [
        {
          "name": "",
          "type": "bool"
        }
      ],
      "payable": false,
      "stateMutability": "nonpayable",
      "type": "function"
    },
    {
      "constant": false,
      "inputs": [],
      "name": "auctionEnd",
      "outputs": [],
      "payable": false,
      "stateMutability": "nonpayable",
      "type": "function"
    }
  ],
  "bytecode": "0x608060405234801561001057600080fd5b5060405160808061072e833981016040908152815160208301519183015160609093015190929042831161004357600080fd5b82821161004f57600080fd5b60028110158015610061575060208111155b151561006c57600080fd5b6000805462ffffff191690556004839055600582905560018190556002805433600160a060020a03199182161790915560038054909116600160a060020a0386161790556100c2816401000000006100cb810204565b5050505061014d565b60005b81811015610149576006805460018181019092557ff652222313e28459528d920b65115c16c04f3efc82aaedc97be59f3f377c0d3f018054600160a060020a031916905560078054808301825560009182527fa66cc928b5edb82af9bd49922954155ab7b0942694bea4ce44661d9a8736c6880155016100ce565b5050565b6105d28061015c6000396000f3006080604052600436106100775763ffffffff7c0100000000000000000000000000000000000000000000000000000000600035041663111cb258811461007c5780632a24f46c146100a65780633ccfd60b146100bd578063454a2ab3146100e657806377484aae146100f1578063c032846b14610125575b600080fd5b34801561008857600080fd5b5061009460043561015e565b60408051918252519081900360200190f35b3480156100b257600080fd5b506100bb61017d565b005b3480156100c957600080fd5b506100d2610262565b604080519115158252519081900360200190f35b6100bb6004356102cc565b3480156100fd57600080fd5b506101096004356104d9565b60408051600160a060020a039092168252519081900360200190f35b34801561013157600080fd5b5061013a610501565b6040518082600581111561014a57fe5b60ff16815260200191505060405180910390f35b600780548290811061016c57fe5b600091825260209091200154905081565b600080600454421015151561019157600080fd5b60005462010000900460ff16156101a757600080fd5b6000805462ff00001916620100001781556040517fa0e92984607195c326795751263414ee1074526323552e694c90ef2b99ae3f299190a15060005b600154811015610223576102196007828154811015156101ff57fe5b90600052602060002001548361059390919063ffffffff16565b91506001016101e3565b600354604051600160a060020a039091169083156108fc029084906000818181858888f1935050505015801561025d573d6000803e3d6000fd5b505050565b33600090815260086020526040812054818111156102c357336000818152600860205260408082208290555183156108fc0291849190818181858888f1935050505015156102c35733600090815260086020526040812082905591506102c8565b600191505b5090565b60005462010000900460ff16156102e257600080fd5b60006102ec610501565b60058111156102f757fe5b148061031557506001610308610501565b600581111561031357fe5b145b151561032057600080fd5b60028110158015610332575060208111155b151561033d57600080fd5b600780548290811061034b57fe5b90600052602060002001543411151561036357600080fd5b600780548290811061037157fe5b6000918252602090912001541561041c576103e360078281548110151561039457fe5b9060005260206000200154600860006006858154811015156103b257fe5b6000918252602080832090910154600160a060020a031683528201929092526040019020549063ffffffff61059316565b600860006006848154811015156103f657fe5b6000918252602080832090910154600160a060020a031683528201929092526040019020555b3360068281548110151561042c57fe5b9060005260206000200160006101000a815481600160a060020a030219169083600160a060020a031602179055503460078281548110151561046a57fe5b600091825260208220019190915554610100900460ff161515610497576000805461ff0019166101001790555b6040805133815234602082015280820183905290517fdafc4a123c6bb3b49dd38a0cba299808581a0126a37248a5f1102d5e5fa063379181900360600190a150565b60068054829081106104e757fe5b600091825260209091200154600160a060020a0316905081565b6000805460ff161561051557506005610590565b600454421115801561052f5750600054610100900460ff16155b8015610544575060005462010000900460ff16155b1561055157506000610590565b600454421115801561056a5750600054610100900460ff165b801561057f575060005462010000900460ff16155b1561058c57506001610590565b5060055b90565b818101828110156105a057fe5b929150505600a165627a7a723058205d81fe1a321a4572ead395ead1c30a72bd68fa76a04c250b92fabfe1e85b68660029",
  "source": "pragma solidity ^0.4.22; // solhint-disable-line\r\n\r\n/*\r\n    ContractStatus:\r\n        Initializing - контракт создан, нет участников, дата аукциона не прошла\r\n        Auction - есть участники, дата аукциона не прошла\r\n        AuctionFault - дата аукциона прошла, не выполнены минимальные условия старта гонки\r\n        (нужно определить) например количество участников, сумма сборов\r\n        PreparationForTheRace - есть участники, дата аукциона прошла, дата гонки не прошла\r\n        RaceIsOver - дата гонги прошла, есть победитель\r\n        Stop - остановка контракта владельцем\r\n*/\r\n\r\ncontract Race {\r\n    using SafeMath for uint256;\r\n\r\n    bool contractStoped; //остановка контракта владельцем\r\n    bool auctionStarted; //\r\n    bool auctionEnded; // признак что аукцион завершен\r\n    uint maxCar; //Максимальное количество автомобилей в гонке (от 2 до 32)\r\n    address owner; //владелец контракта\r\n    address beneficiary; //получатель выгоды\r\n    uint auctionEndDate; //дата завершения аукциона\r\n    uint raceEndDate; //дата завершения гонки\r\n    address[] public highestBidders; //адрес самого выского претендента для кадого автомобиля[порядковый номер автомобиля]\r\n    uint256[] public highestBids; //самая высокая ставка для кадого автомобиля [порядковый номер автомобиля]\r\n    mapping(address => uint256) pendingReturns; //возврат средств участникам аукциона   \r\n\r\n    enum ContractStatus {\r\n        Initsialising, \r\n        Auction,\r\n        AuctionFault,\r\n        PreparationForTheRace,\r\n        RaceIsOver,\r\n        Stop\r\n    }\r\n//EVENTS----------------------------------------------------------------------  \r\n    event HighestBidIncreased(address sender, uint256 value, uint carIndex); // событие об увеличение максимальной ставки для тачки\r\n    event AuctionEnded(); // событие о завершении аукциона\r\n//MODIFER---------------------------------------------------------------------  \r\n    modifier auctionInProgress(){\r\n        require(!auctionEnded);\r\n        require((getContractStatus() == ContractStatus.Initsialising) || (getContractStatus() == ContractStatus.Auction));\r\n        _;\r\n    }\r\n\r\n//CONSTRUCTOR---------------------------------------------------------------------\r\n    constructor(address _beneficiary, uint _auctionEndDate, uint _raceEndDate, uint _maxCar) public {\r\n        require(_auctionEndDate > now);\r\n        require(_raceEndDate > _auctionEndDate);\r\n        require((_maxCar >= 2) && (_maxCar <= 32));\r\n        auctionStarted = false;\r\n        contractStoped = false;\r\n        auctionEnded = false;\r\n        auctionEndDate = _auctionEndDate;\r\n        raceEndDate = _raceEndDate;\r\n        maxCar = _maxCar;\r\n        owner = msg.sender;\r\n        beneficiary = _beneficiary;\r\n        initCars(maxCar);\r\n    }\r\n\r\n    function initCars(uint carsCount) internal {\r\n        for (uint i = 0; i < carsCount; i++){\r\n            highestBidders.push(0);\r\n            highestBids.push(0);\r\n        }\r\n    }\r\n\r\n    function getContractStatus() public view returns(ContractStatus){\r\n        if (contractStoped) return ContractStatus.Stop;\r\n        //ContractStatus.Initsialising---------------------------------------------------------------------\r\n        if ((now <= auctionEndDate) && !auctionStarted && !auctionEnded) return ContractStatus.Initsialising;\r\n        \r\n        //ContractStatus.Auction--------------------------------------------------------------------------\r\n        if ((now <= auctionEndDate) && auctionStarted && !auctionEnded) return ContractStatus.Auction;\r\n\r\n        //ContractStatus.AuctionFault--------------------------------------------------------------------------\r\n        \r\n\r\n        //ContractStatus.PreparationForTheRace--------------------------------------------------------------------------\r\n        \r\n\r\n        //ContractStatus.RaceIsOver--------------------------------------------------------------------------\r\n        \r\n\r\n        //состояние по умолчанию\r\n        return ContractStatus.Stop;\r\n    }\r\n\r\n//FUNCTIONS AUCTION---------------------------------------------------------------------\r\n    //ставка на машину с индексом carIndex\r\n    function bid(uint carIndex)\r\n        auctionInProgress\r\n        public\r\n        payable\r\n    {\r\n        require((carIndex >= 2) && (carIndex <= 32));\r\n        require(msg.value > highestBids[carIndex]);\r\n        if (highestBids[carIndex] != 0) {\r\n            pendingReturns[highestBidders[carIndex]] = pendingReturns[highestBidders[carIndex]].add(highestBids[carIndex]);\r\n        }\r\n        highestBidders[carIndex] = msg.sender;\r\n        highestBids[carIndex] = msg.value;\r\n        if (!auctionStarted) auctionStarted = true;\r\n        emit HighestBidIncreased(msg.sender, msg.value, carIndex);\r\n    }\r\n\r\n    //возрат ставки в случае перекупа тачки\r\n    function withdraw() public returns (bool) {\r\n        uint256 amount = pendingReturns[msg.sender];\r\n        if (amount > 0) {\r\n            pendingReturns[msg.sender] = 0;\r\n            if (!msg.sender.send(amount)) {\r\n                pendingReturns[msg.sender] = amount;\r\n                return false;\r\n            }\r\n        }\r\n        return true;\r\n    }\r\n\r\n    //завершщение аукциона, забираем ставки\r\n    function auctionEnd() public {\r\n        require(now >= auctionEndDate);\r\n        require(!auctionEnded);\r\n        auctionEnded = true;\r\n        emit AuctionEnded();\r\n        uint256 amount;\r\n        for (uint i = 0; i < maxCar; i++) amount = amount.add(highestBids[i]);\r\n        beneficiary.transfer(amount);\r\n    }\r\n\r\n}\r\n\r\n\r\n\r\n//UTILITES==========================================================================================\r\n/**\r\n * @title SafeMath\r\n * @dev Math operations with safety checks that throw on error\r\n */\r\nlibrary SafeMath {\r\n\r\n    /**\r\n    * @dev Multiplies two numbers, throws on overflow.\r\n    */\r\n    function mul(uint256 a, uint256 b) internal pure returns (uint256 c) {\r\n        if (a == 0) {\r\n            return 0;\r\n        }\r\n        c = a * b;\r\n        assert(c / a == b);\r\n        return c;\r\n    }\r\n\r\n    /**\r\n    * @dev Integer division of two numbers, truncating the quotient.\r\n    */\r\n    function div(uint256 a, uint256 b) internal pure returns (uint256) {\r\n        // assert(b > 0); // Solidity automatically throws when dividing by 0\r\n        // uint256 c = a / b;\r\n        // assert(a == b * c + a % b); // There is no case in which this doesn't hold\r\n        return a / b;\r\n    }\r\n\r\n    /**\r\n    * @dev Subtracts two numbers, throws on overflow (i.e. if subtrahend is greater than minuend).\r\n    */\r\n    function sub(uint256 a, uint256 b) internal pure returns (uint256) {\r\n        assert(b <= a);\r\n        return a - b;\r\n    }\r\n\r\n    /**\r\n    * @dev Adds two numbers, throws on overflow.\r\n    */\r\n    function add(uint256 a, uint256 b) internal pure returns (uint256 c) {\r\n        c = a + b;\r\n        assert(c >= a);\r\n        return c;\r\n    }\r\n}\r\n",
  "sourcePath": "C:\\Users\\Demidkin\\Projects\\Race\\contracts\\Race.sol",
  "compiler": {
    "name": "solc",
    "version": "0.4.24+commit.e67f0147.Emscripten.clang"
  },
  "schemaVersion": "2.0.0",
  "updatedAt": "2018-06-06T13:58:38.443Z"
}